:04000000A0EF12F06B
:10100000003132333435363738392A302357726F4E
:101010006E672050617373776F7264202100456E94
:101020007465722050617373776F7264203A003276
:101030002D436C6F736520546865204C6F636B00A3
:10104000312D4F70656E20546865204C6F636B00C6
:10105000506C656173652057616974005472792022
:10106000616761696E0057656C636F6D6500332D54
:091070004578697400256900004F
:10107A0018EC13F0280E4F6E000E506E010E516ED2
:10108A00010E526E1E0E536E100E546E5FEC11F06E
:10109A00776E210E3C6E000E3D6E760E3E6E000E91
:1010AA003F6E92EC0DF0776E020E5D6E040E5C6E72
:1010BA00BA0EE82EFED75C2EFCD75D2EFAD700D0EA
:1010CA00060E6118D8A46CEF08F06EEF08F0E5EF91
:1010DA0009F0DD0E5E1807E13D0E5F18D8A478EF1F
:1010EA0008F07AEF08F086EF09F0000E766E60508D
:1010FA00D8A482EF08F084EF08F0B2EF08F0280EC7
:10110A00446E000E456E010E466E7BEC10F0776E53
:10111A00280E4F6E000E506E010E516E070E526E63
:10112A00660E536E100E546E5FEC11F0776E060E5B
:10113A005D6E130E5C6EAE0EE82EFED75C2EFCD7EB
:10114A005D2EFAD7280E446E000E456E010E466ECD
:10115A007BEC10F0776E010E606E280E4F6E000E5B
:10116A00506E010E516E010E526E400E536E100EED
:10117A00546E5FEC11F0776E280E4F6E000E506EB3
:10118A00020E516E010E526E2F0E536E100E546ED9
:10119A005FEC11F0776E280E4F6E000E506E030E44
:1011AA00516E010E526E6E0E536E100E546E5FEC3F
:1011BA0011F0776E210E3C6E000E3D6E760E3E6E7D
:1011CA00000E3F6E92EC0DF0776E280E4F6E000EF9
:1011DA00506E040E516E010E526E76C053F0B3EC8F
:1011EA0011F0776E310E7618D8A4FEEF08F000EFF2
:1011FA0009F030EF09F0280E446E000E456E010E1C
:10120A00466E7BEC10F0776E820E5C6EDE0EE82E78
:10121A00FED75C2EFCD72E0E3C6E000E3D6EF9EC0E
:10122A0011F0776E310E3C6E000E3D6E40EC0FF001
:10123A00776E300E3C6E000E3D6E82EC0FF0776ECC
:10124A0019EC0EF02E0E3C6E000E3D6ED6EC11F02F
:10125A00776E4EEF08F0320E7618D8A437EF09F001
:10126A0039EF09F060EF09F0280E446E000E456E62
:10127A00010E466E7BEC10F0776E820E5C6EDE0E0F
:10128A00E82EFED75C2EFCD72E0E3C6E000E3D6E6D
:10129A001CEC12F0776E300E3C6E000E3D6E40EC88
:1012AA000FF0776E310E3C6E000E3D6E82EC0FF041
:1012BA00776E25EF09F0330E7618D8A467EF09F098
:1012CA0069EF09F0E3EF09F0000E5F6E000E5E6E43
:1012DA00000E616E000E606E000E766E19EC0EF056
:1012EA00280E4F6E000E506E010E516E010E526E98
:1012FA001E0E536E100E546E5FEC11F0776E4EEFA9
:10130A0008F0280E446E000E456E010E466E7BEC08
:10131A0010F0776E280E4F6E000E506E010E516E51
:10132A00010E526E0D0E536E100E546E5FEC11F0DC
:10133A00776E280E4F6E000E506E020E516E010E21
:10134A00526E5C0E536E100E546E5FEC11F0776E97
:10135A00000E5F6E000E5E6E000E616E000E606E15
:10136A00000E766E050E5D6E910E5C6ED00EE82E46
:10137A00FED75C2EFCD75D2EFAD7280E446E000EDF
:10138A00456E010E466E7BEC10F0776E820E5C6E37
:10139A00DE0EE82EFED75C2EFCD7280E4F6E000E0E
:1013AA00506E010E516E010E526E1E0E536E100ECD
:1013BA00546E5FEC11F0776E4EEF08F04EEF08F0C6
:1013CA006B0E326E000E336EBBEC12F0060E321844
:1013DA003310D8A4F3EF09F0F5EF09F013EF0AF090
:1013EA006B0E386E000E396E1FEC0BF038C05EF0D3
:1013FA0039C05FF0060E616E6B0E326E000E336EF0
:10140A00000E356E000E346E000E376E0B0E366E01
:10141A0064EC0AF0000E626E4EEF08F0230E7618A6
:10142A00D8A41AEF0AF01CEF0AF040EF0AF0280ECF
:10143A00446E000E456E010E466E7BEC10F0776E20
:10144A00280E4F6E000E506E010E516E010E526E36
:10145A001E0E536E100E546E5FEC11F0776E000E76
:10146A005F6E000E5E6E000E616E000E606E000E04
:10147A00766E01EF0AF07650D8B446EF0AF048EFDC
:10148A000AF04EEF08F06B0E6224D96EDA6A000E8B
:10149A00DA2276C0DFFF280E4F6E000E506E020E63
:1014AA00516E6228526E2A0E536EB3EC11F0776EAB
:1014BA00000E766E622A4EEF08F000EF00F032C09E
:1014CA003CF033C03DF036503710D8A46FEF0AF025
:1014DA0071EF0AF073EF0AF01EEF0BF03CC0D9FF70
:1014EA003DC0DAFF34C0DFFF36503C24386E375037
:1014FA003D20396EFF0E3824D96EFF0E3920DA6E80
:10150A0034C0DFFF375007E1030E365CD8B090EFE6
:10151A000AF092EF0AF094EF0AF01EEF0BF020EEB9
:10152A0001F03C50D9263D50DA2234C0DFFF20EECC
:10153A0002F03C50D9263D50DA2234C0DFFF365043
:10154A003C24386E37503D20396EFE0E3824D96E51
:10155A00FF0E3920DA6E34C0DFFF36503C24386E75
:10156A0037503D20396EFD0E3824D96EFF0E3920D2
:10157A00DA6E34C0DFFF375007E1070E365CD8B0A9
:10158A00C9EF0AF0CBEF0AF0CDEF0AF01EEF0BF02D
:10159A0020EE03F03C50D9263D50DA2234C0DFFF5A
:1015AA0036503C24386E37503D20396EFC0E3824B4
:1015BA00D96EFF0E3920DA6E34C0DFFF375007E1EB
:1015CA00090E365CD8B0ECEF0AF0EEEF0AF0F0EF55
:1015DA000AF01EEF0BF03CC038F03DC039F0381E5F
:1015EA00391E384A392A030E38143A6E3B6A3A5081
:1015FA003C263B503D223A50365E3B50375AFC0E51
:10160A003616FF0E371615EF0BF03CC0D9FF3DC05A
:10161A00DAFF34C0DFFF3606D8A037063C4A3D2A37
:10162A0036503710D8A41CEF0BF01EEF0BF00AEF60
:10163A000BF01200000E406E000E3F6E000E3E6E62
:10164A00000E3D6E2BEF0BF0384A392A38C0D9FF0D
:10165A0039C0DAFF200EDE18D8B436EF0BF038EFB7
:10166A000BF029EF0BF038C0D9FF39C0DAFFDF5091
:10167A003A6EF70E3A243B6E3C6AFF0E3C223C500F
:10168A0009E1050E3B5CD8A04DEF0BF04FEF0BF0D4
:10169A0029EF0BF059EF0BF0000E3E6E010E3D6E76
:1016AA00384A392A8EEF0BF038C0D9FF39C0DAFF31
:1016BA00DF503A6E3B6A3B50000AD8B467EF0BF032
:1016CA008EEF0BF03A502B0AD8B455EF0BF0060AFE
:1016DA00D8B451EF0BF08EEF0BF03FC032F040C0A0
:1016EA0033F0000E356E0A0E346E05EC13F038C076
:1016FA00D9FF39C0DAFFDF503A6E3A50325E000E37
:10170A00335A300E32243F6E000E3320406E55EFAE
:10171A000BF038C0D9FF39C0DAFFDF503A6ED00E6D
:10172A003A243B6E3C6AFF0E3C223C5009E10A0E09
:10173A003B5CD8A0A3EF0BF0A5EF0BF072EF0BF018
:10174A003D503E10D8A4ACEF0BF0AEEF0BF0BCEF5F
:10175A000BF03FC03AF040C03BF03A1E3B1E3A4AFB
:10176A003B2A3AC038F03BC039F0C0EF0BF03FC01B
:10177A0038F040C039F01200010E3A6E3250331080
:10178A00D8B4CAEF0BF0CCEF0BF0DDEF0BF032C0A0
:10179A00D9FF33C0DAFFDF30E832E832070B346EA4
:1017AA00070E3464DBEF0BF0DDEF0BF040EF0CF0CB
:1017BA00000E3A6E61EF0CF032C0D9FF33C0DAFF87
:1017CA00DF30E832E832070B346E010E356E342A08
:1017DA00F1EF0BF0D8903536342EEFEF0BF0355091
:1017EA00FF0A366E32C0D9FF33C0DAFFDF50070B6B
:1017FA00376E3750020D150EF324D96E000EF42001
:10180A00DA6EDECF38F0DDCF39F038C0D9FF39C013
:10181A00DAFF3650DF1661EF0CF032C0D9FF33C061
:10182A00DAFFDF30E832E832070B346E010E356E2C
:10183A00342A22EF0CF0D8903536342E20EF0CF0F3
:10184A0032C0D9FF33C0DAFFDF50070B366E36508D
:10185A00020D150EF324D96E000EF420DA6EDECFD7
:10186A0037F0DDCF38F037C0D9FF38C0DAFF35504E
:10187A00DF1261EF0CF032C0D9FF33C0DAFFDFBCF0
:10188A0049EF0CF04CEF0CF0010E4DEF0CF0000E8E
:10189A00346E356A3550000AD8B456EF0CF0DDEFD5
:1018AA000BF03450000AD8B4E1EF0BF0010AD8B4B7
:1018BA0012EF0CF0DDEF0BF03A50120048504910CD
:1018CA00D8A46AEF0CF06CEF0CF070EF0CF0000E7D
:1018DA004D6EFAEF0CF0040E48243C6E000E4920BF
:1018EA003D6E29EC11F04D6E050E48243C6E000E3B
:1018FA0049203D6E29EC11F04D6E000E4C6E000E23
:10190A004B6E4B5048243C6E4C5049203D6E29EC9E
:10191A0011F04B4A4C2A4CBE9CEF0CF04C5009E19A
:10192A00040E4B5CD8A09CEF0CF09EEF0CF086EFF7
:10193A000CF01A0E4A6EF80EE82EFED74A2EFCD785
:10194A0000D048C044F049C045F0380E466E7BECE2
:10195A0010F0070E4A6E7D0EE82EFED74A2EFCD7EF
:10196A0000F048C044F049C045F0380E466E7BECA2
:10197A0010F0320EE82EFED748C044F049C045F0B8
:10198A00380E466E7BEC10F048C044F049C045F072
:10199A00010E466E7BEC10F048C044F049C045F099
:1019AA00020E466E7BEC10F048C044F049C045F088
:1019BA00060E466E7BEC10F048C044F049C045F074
:1019CA000C0E466E7BEC10F048C044F049C045F05E
:1019DA00280E466E7BEC10F048C044F049C045F032
:1019EA00800E466E7BEC10F04D6E4D501200010ECB
:1019FA003B6E32503310D8B405EF0DF007EF0DF0FF
:101A0A0018EF0DF032C0D9FF33C0DAFFDF30E83209
:101A1A00E832070B356E070E356416EF0DF018EF36
:101A2A000DF07BEF0DF0000E3B6E90EF0DF032C023
:101A3A00D9FF33C0DAFFDF30E832E832070B356E00
:101A4A00010E366E352A2CEF0DF0D8903636352E2B
:101A5A002AEF0DF03650FF0A376E32C0D9FF33C075
:101A6A00DAFFDF50070B386E3850020D010EF324EF
:101A7A00D96E000EF420DA6EDECF39F0DDCF3AF0FF
:101A8A0039C0D9FF3AC0DAFF3750DF1690EF0DF0B0
:101A9A0032C0D9FF33C0DAFFDF30E832E832070B51
:101AAA00356E010E366E352A5DEF0DF0D89036365A
:101ABA00352E5BEF0DF032C0D9FF33C0DAFFDF50AD
:101ACA00070B376E3750020D010EF324D96E000E44
:101ADA00F420DA6EDECF38F0DDCF39F038C0D9FF26
:101AEA0039C0DAFF3650DF1290EF0DF03450356E00
:101AFA00366A3650000AD8B485EF0DF018EF0DF0AB
:101B0A003550000AD8B41CEF0DF0010AD8B44DEFD5
:101B1A000DF018EF0DF03B501200000E436E000E50
:101B2A00456E000E446E000E466E3C503D10D8B411
:101B3A00A1EF0DF0A3EF0DF0ACEF0DF03E503F100A
:101B4A00D8A4AAEF0DF0ACEF0DF0B0EF0DF0000E37
:101B5A00426E17EF0EF0000E456E000E446E4450B2
:101B6A003C24326E000E3D20336E000E346EFCECC7
:101B7A000CF0442A030E4464C5EF0DF0C7EF0DF0D4
:101B8A00B4EF0DF045503C24326E000E3D20336E0A
:101B9A00010E346EFCEC0CF0000E466E46503C24EE
:101BAA00406E000E3D20416E040E4024326E000E3F
:101BBA004120336E430E346E000E356EE4EC0EF0A7
:101BCA00426E4304D8A4ECEF0DF0EEEF0DF005EFF2
:101BDA000EF04550030D010EF324406E100EF42052
:101BEA00416E46504026000E412240C0F6FF41C0D9
:101BFA00F7FF3EC0D9FF3FC0DAFF0800F5CFDFFF8D
:101C0A00462A020E46640CEF0EF00EEF0EF0D3EFEA
:101C1A000DF0452A030E456415EF0EF017EF0EF08E
:101C2A00B2EF0DF042501200280E446E000E456EBF
:101C3A00010E466E7BEC10F0000E596E000E586EC7
:101C4A00280E4F6E000E506E010E516E010E526E2E
:101C5A00500E536E100E546E5FEC11F0000E5B6E58
:101C6A000B0E5A6E280E4F6E000E506E010E516EFC
:101C7A005AC052F02E0E536EB3EC11F0020E576E8C
:101C8A00040E566EBA0EE82EFED7562EFCD7572EE5
:101C9A00FAD700D05A4A5B2A5BBE5DEF0EF05B5062
:101CAA0009E1100E5A5CD8A05DEF0EF05FEF0EF05E
:101CBA0037EF0EF0060E576E130E566EAE0EE82E66
:101CCA00FED7562EFCD7572EFAD7280E446E000E92
:101CDA00456E010E466E7BEC10F0584A592A59BEE1
:101CEA0080EF0EF0595009E1020E585CD8A080EF3F
:101CFA000EF082EF0EF025EF0EF01200010E4E6E7E
:101D0A0048504910D8A48CEF0EF08EEF0EF092EFE7
:101D1A000EF0000E4E6EE2EF0EF04B06C5EF0EF01F
:101D2A0048C044F049C045F04B50800F466E7BECEA
:101D3A0010F04E6EE2EF0EF048C044F049C045F094
:101D4A004B50C00F466E7BEC10F04E6EE2EF0EF079
:101D5A0048C044F049C045F04B50940F466E7BECA6
:101D6A0010F04E6EE2EF0EF048C044F049C045F064
:101D7A004B50D40F466E7BEC10F04E6EE2EF0EF035
:101D8A004A504C6E4D6A4D50000AD8B4CFEF0EF04F
:101D9A00E2EF0EF04C50010AD8B495EF0EF0030AA8
:101DAA00D8B4A1EF0EF0010AD8B4ADEF0EF0070ACD
:101DBA00D8B4B9EF0EF0E2EF0EF04E501200010E59
:101DCA003B6E32503310D8B4EDEF0EF0EFEF0EF059
:101DDA0009EF0FF032C0D9FF33C0DAFFDF30E83243
:101DEA00E832070B366E080E3660FEEF0EF000EF93
:101DFA000FF009EF0FF034503510D8A407EF0FF0A9
:101E0A0009EF0FF00DEF0FF0000E3B6E3EEF0FF0F3
:101E1A0032C0D9FF33C0DAFFDF30E832E832070BCD
:101E2A00366E32C0D9FF33C0DAFFDF50070B376E88
:101E3A003750020D0B0EF324D96E000EF420DA6E21
:101E4A00DECF38F0DDCF39F038C0D9FF39C0DAFF3C
:101E5A00DF503A6E362A34EF0FF0D8903A32362EE7
:101E6A0032EF0FF03A50010B34C0D9FF35C0DAFF18
:101E7A00DF6E3B501200010E3F6E3C503D10D8A45D
:101E8A0049EF0FF04BEF0FF04FEF0FF0000E3F6EE0
:101E9A0080EF0FF065C040F03CC0D9FF3DC0DAFFCB
:101EAA00DF50070B3E6E40503E18F80B3E18406E4E
:101EBA003CC0D9FF3DC0DAFFDF30E832E832070B19
:101ECA003E6E3E463E463E4640503E18C70B3E18C2
:101EDA00406E409C3CC0D9FF3DC0DAFFDFAC02D067
:101EEA00408E01D0409E400E326E000E336E010EBF
:101EFA00346EFCEC0CF03F501200010E3F6E3C5069
:101F0A003D10D8A48BEF0FF08DEF0FF091EF0FF08B
:101F1A00000E3F6EC2EF0FF064C040F03CC0D9FF24
:101F2A003DC0DAFFDF50070B3E6E40503E18F80BFB
:101F3A003E18406E3CC0D9FF3DC0DAFFDF30E832C0
:101F4A00E832070B3E6E3E463E463E4640503E183D
:101F5A00C70B3E18406E409C3CC0D9FF3DC0DAFF1B
:101F6A00DFAC02D0408E01D0409E400E326E000E91
:101F7A00336E000E346EFCEC0CF03F501200010E72
:101F8A00436E40504110D8A4CDEF0FF0CFEF0FF0C1
:101F9A00D3EF0FF0000E436E02EF10F066C044F06C
:101FAA0040C0D9FF41C0DAFFDF50070B426E4450F0
:101FBA004218F80B4218446E40C0D9FF41C0DAFFFC
:101FCA00DF30E832E832070B426E4246424642466A
:101FDA0044504218C70B4218446E449C40C0D9FF73
:101FEA0041C0DAFFDFAC02D0448E01D0449E440ED9
:101FFA003C6E000E3D6E29EC11F043501200405029
:10200A004110D8A40BEF10F00DEF10F011EF10F003
:10201A00000E446E3EEF10F0000E456E455040240F
:10202A003C6E000E41203D6E29EC11F0452A030E4C
:10203A00456422EF10F024EF10F013EF10F0000EB9
:10204A00466E46504024426E000E4120436E040EF6
:10205A004224326E000E4320336EC1EC0BF0446E04
:10206A00462A030E46643CEF10F03EEF10F026EFCE
:10207A0010F04450120044504510D8A447EF10F015
:10208A0049EF10F04DEF10F0000E476E79EF10F0A7
:10209A00050E4424326E000E4520336E010E346E56
:1020AA00FCEC0CF0476E44C03CF045C03DF04638AD
:1020BA000F0B3E6EB6EC10F0476E44C03CF045C0C4
:1020CA003DF08CEC11F0476E44C03CF045C03DF049
:1020DA0046C03EF0B6EC10F0476E44C03CF045C036
:1020EA003DF08CEC11F0476E4750120044504510F9
:1020FA00D8A482EF10F084EF10F088EF10F0000EF1
:10210A00476EB4EF10F0050E4424326E000E4520DF
:10211A00336E000E346EFCEC0CF0476E44C03CF09B
:10212A0045C03DF046380F0B3E6EB6EC10F0476ED8
:10213A0044C03CF045C03DF08CEC11F0476E44C001
:10214A003CF045C03DF046C03EF0B6EC10F0476E9C
:10215A0044C03CF045C03DF08CEC11F0476E47504E
:10216A0012003C503D10D8A4BDEF10F0BFEF10F0A4
:10217A00C3EF10F0000E416EEFEF10F0000E436E49
:10218A00000E426E42503C24326E43503D20336E64
:10219A0042C03FF03EC040F03F2AD6EF10F0D89040
:1021AA0040323F2ED4EF10F04050010B346EFCEC5D
:1021BA000CF0416E424A432A43BEEDEF10F0435001
:1021CA0009E1040E425CD8A0EDEF10F0EFEF10F039
:1021DA00C7EF10F041501200010E4C6E48504910E2
:1021EA00D8B4FAEF10F0FCEF10F005EF11F04A50F6
:1021FA004B10D8A403EF11F005EF11F019EF11F00D
:10220A00000E4C6E27EF11F048C044F049C045F06B
:10221A004AC0F6FF4BC0F7FF0800F5CF46F040EC86
:10222A0010F04C6E4A4A4B2A4AC0F6FF4BC0F7FFE1
:10223A000800F5500009D8A425EF11F027EF11F096
:10224A0009EF11F04C5012003C503D10D8B430EF59
:10225A0011F032EF11F043EF11F03CC0D9FF3DC04D
:10226A00DAFFDF30E832E832070B3E6E070E3E64D3
:10227A0041EF11F043EF11F047EF11F0000E3F6EFE
:10228A005DEF11F03CC032F03DC033F0C1EC0BF011
:10229A003F6E3CC032F03DC033F03CC0D9FF3DC078
:1022AA00DAFF000EDFBE010E346EFCEC0CF03F6E5E
:1022BA003F5012004F505010D8B466EF11F068EF3B
:1022CA0011F071EF11F053505410D8A46FEF11F0C0
:1022DA0071EF11F075EF11F0000E556E8AEF11F0E3
:1022EA004FC048F050C049F051C04AF052C04BF0BC
:1022FA0083EC0EF04FC048F050C049F053C04AF08A
:10230A0054C04BF0F1EC10F0556E555012003C5091
:10231A003D10D8A493EF11F095EF11F099EF11F059
:10232A00000E3E6EB1EF11F0040E3C24326E000E28
:10233A003D20336E010E346EFCEC0CF000D000D060
:10234A0000F0040E3C24326E000E3D20336E000E67
:10235A00346EFCEC0CF03E6E3E5012004F505010A2
:10236A00D8A4BAEF11F0BCEF11F0C0EF11F0000ED3
:10237A00546ED4EF11F04FC048F050C049F051C02C
:10238A004AF052C04BF083EC0EF0546E4FC044F04A
:10239A0050C045F053C046F040EC10F0546E545013
:1023AA0012003C503D10D8A4DDEF11F0DFEF11F020
:1023BA00E3EF11F0000E3E6EF7EF11F03CC032F081
:1023CA003DC033F0000E346EFCEC0CF03E6E010E94
:1023DA003C24326E000E3D20336E000E346EFCEC4F
:1023EA000CF03E6E3E5012003C503D10D8A400EF57
:1023FA0012F002EF12F006EF12F0000E3E6E1AEF24
:10240A0012F03CC032F03DC033F0010E346EFCECE9
:10241A000CF03E6E010E3C24326E000E3D20336EEF
:10242A00000E346EFCEC0CF03E6E3E5012003C5036
:10243A003D10D8A423EF12F025EF12F029EF12F085
:10244A00000E3E6E3DEF12F03CC032F03DC033F05C
:10245A00000E346EFCEC0CF03E6E010E3C24326E23
:10246A00000E3D20336E010E346EFCEC0CF03E6E15
:10247A003E501200010E366E200E32183310D8B4B8
:10248A0049EF12F04BEF12F05EEF12F0F70E322422
:10249A00346EFF0E3320356E355009E1050E345C7B
:1024AA00D8A05AEF12F05CEF12F05EEF12F0000EB5
:1024BA00366E36C032F0336A1200280E486E000EAD
:1024CA00496E63EC0CF0210E406E000E416E04EC76
:1024DA0010F02E0E406E000E416E81EC12F0310E9D
:1024EA00406E000E416EC4EC0FF0300E406E000ECE
:1024FA00416EC4EC0FF0120040504110D8A488EF8E
:10250A0012F08AEF12F08EEF12F0000E426E9EEF7A
:10251A0012F040C03CF041C03DF029EC11F0426E8F
:10252A00010E40243C6E000E41203D6E29EC11F054
:10253A00426E42501200AC0EF66E250EF76E000E79
:10254A00F86E00EE01F010EE31F00900F5CFEEFF63
:10255A00E550E150FAE100EE5EF0190EEE6AE80687
:10256A00FDE1000EF86E00013DEF08F032C034F0D4
:10257A0033C035F0C3EF12F0324A332A32C0D9FFE2
:10258A0033C0DAFFDF50D8A4CDEF12F0CFEF12F04C
:10259A00C1EF12F03450325C326E35503358336E1C
:1025AA001200890F8A0F8B0F8C0F8D0F800F810FEE
:1025BA00820F830F840F920F930F940F950F960F2C
:1025CA00DD3D020A121A626A72232B333B1B130087
:0325DA00080B03E8
:1025DE00D00E3224346EFF0E3320356E35500AE1A4
:1025EE000A0E345CD8A0FEEF12F001EF13F0010ECC
:1025FE0002EF13F0000E326E336A120032503402C4
:10260E00F3CF36F0F4CF37F032503502F350372691
:10261E0033503402F350372636C032F037C033F021
:08262E00120062EC12F0120030
:020000040030CA
:0E000000FF02091EFF8181FF0FC00FE00F40BD
:00000001FF
