:04000000B2EF12F059
:10100000003132333435363738392A302357726F4E
:101010006E672050617373776F7264202100456E94
:101020007465722050617373776F7264203A003276
:101030002D436C6F736520546865204C6F636B00A3
:10104000312D4F70656E20546865204C6F636B00C6
:10105000506C656173652057616974005472792022
:10106000616761696E0057656C636F6D6500332D54
:091070004578697400256900004F
:10107A002AEC13F0280E4F6E000E506E010E516EC0
:10108A00010E526E1E0E536E100E546E71EC11F05C
:10109A00786E210E3C6E000E3D6E770E3E6E000E8F
:1010AA003F6EA3EC0DF0786E020E5D6E040E5C6E60
:1010BA00BA0EE82EFED75C2EFCD75D2EFAD700D0EA
:1010CA00060E6218D8A46CEF08F06EEF08F0E5EF90
:1010DA0009F0400E5E1807E1E20E5F18D8A478EF17
:1010EA0008F07AEF08F086EF09F0000E776E61508B
:1010FA00D8A482EF08F084EF08F0B2EF08F0280EC7
:10110A00446E000E456E010E466E8DEC10F0786E40
:10111A00280E4F6E000E506E010E516E070E526E63
:10112A00660E536E100E546E71EC11F0786E060E48
:10113A005D6E130E5C6EAE0EE82EFED75C2EFCD7EB
:10114A005D2EFAD7280E446E000E456E010E466ECD
:10115A008DEC10F0786E010E616E280E4F6E000E47
:10116A00506E010E516E010E526E400E536E100EED
:10117A00546E71EC11F0786E280E4F6E000E506EA0
:10118A00020E516E010E526E2F0E536E100E546ED9
:10119A0071EC11F0786E280E4F6E000E506E030E31
:1011AA00516E010E526E6E0E536E100E546E71EC2D
:1011BA0011F0786E210E3C6E000E3D6E770E3E6E7B
:1011CA00000E3F6EA3EC0DF0786E280E4F6E000EE7
:1011DA00506E040E516E010E526E77C053F0C5EC7C
:1011EA0011F0786E310E7718D8A4FEEF08F000EFF0
:1011FA0009F030EF09F0280E446E000E456E010E1C
:10120A00466E8DEC10F0786E820E5C6EDE0EE82E65
:10121A00FED75C2EFCD72E0E3C6E000E3D6E0BECFC
:10122A0012F0786E310E3C6E000E3D6E52EC0FF0ED
:10123A00786E300E3C6E000E3D6E94EC0FF0786EB8
:10124A002AEC0EF02E0E3C6E000E3D6EE8EC11F00C
:10125A00786E4EEF08F0320E7718D8A437EF09F0FF
:10126A0039EF09F060EF09F0280E446E000E456E62
:10127A00010E466E8DEC10F0786E820E5C6EDE0EFC
:10128A00E82EFED75C2EFCD72E0E3C6E000E3D6E6D
:10129A002EEC12F0786E300E3C6E000E3D6E52EC63
:1012AA000FF0786E310E3C6E000E3D6E94EC0FF02E
:1012BA00786E25EF09F0330E7718D8A467EF09F096
:1012CA0069EF09F0E3EF09F0000E5F6E000E5E6E43
:1012DA00000E626E000E616E000E776E2AEC0EF042
:1012EA00280E4F6E000E506E010E516E010E526E98
:1012FA001E0E536E100E546E71EC11F0786E4EEF96
:10130A0008F0280E446E000E456E010E466E8DECF6
:10131A0010F0786E280E4F6E000E506E010E516E50
:10132A00010E526E0D0E536E100E546E71EC11F0CA
:10133A00786E280E4F6E000E506E020E516E010E20
:10134A00526E5C0E536E100E546E71EC11F0786E84
:10135A00000E5F6E000E5E6E000E626E000E616E13
:10136A00000E776E050E5D6E910E5C6ED00EE82E45
:10137A00FED75C2EFCD75D2EFAD7280E446E000EDF
:10138A00456E010E466E8DEC10F0786E820E5C6E24
:10139A00DE0EE82EFED75C2EFCD7280E4F6E000E0E
:1013AA00506E010E516E010E526E1E0E536E100ECD
:1013BA00546E71EC11F0786E4EEF08F04EEF08F0B3
:1013CA006C0E326E000E336ECDEC12F0060E321831
:1013DA003310D8A4F3EF09F0F5EF09F013EF0AF090
:1013EA006C0E386E000E396E30EC0BF038C05EF0C1
:1013FA0039C05FF0060E626E6C0E326E000E336EEE
:10140A00000E356E000E346E000E376E0B0E366E01
:10141A0075EC0AF0000E636E60EF0AF0230E77187F
:10142A00D8A41AEF0AF01CEF0AF040EF0AF0280ECF
:10143A00446E000E456E010E466E8DEC10F0786E0D
:10144A00280E4F6E000E506E010E516E010E526E36
:10145A001E0E536E100E546E71EC11F0786E000E63
:10146A005F6E000E5E6E000E626E000E616E000E02
:10147A00776E01EF0AF07750D8B446EF0AF048EFDA
:10148A000AF060EF0AF06C0E6324D96EDA6A000E75
:10149A00DA2277C0DFFF280E4F6E000E506E020E62
:1014AA00516E6328526E2A0E536EC5EC11F0786E97
:1014BA00000E776E632A6050D8A466EF0AF068EFD0
:1014CA000AF04EEF08F0300E3C6E000E3D6E52EC04
:1014DA000FF0786E010E606E4EEF08F000EF00F02C
:1014EA0032C03CF033C03DF036503710D8A480EFFC
:1014FA000AF082EF0AF084EF0AF02FEF0BF03CC0FB
:10150A00D9FF3DC0DAFF34C0DFFF36503C24386EC5
:10151A0037503D20396EFF0E3824D96EFF0E392020
:10152A00DA6E34C0DFFF375007E1030E365CD8B0FD
:10153A00A1EF0AF0A3EF0AF0A5EF0AF02FEF0BF0E4
:10154A0020EE01F03C50D9263D50DA2234C0DFFFAC
:10155A0020EE02F03C50D9263D50DA2234C0DFFF9B
:10156A0036503C24386E37503D20396EFE0E3824F2
:10157A00D96EFF0E3920DA6E34C0DFFF36503C24B4
:10158A00386E37503D20396EFD0E3824D96EFF0E65
:10159A003920DA6E34C0DFFF375007E1070E365CB8
:1015AA00D8B0DAEF0AF0DCEF0AF0DEEF0AF02FEF3C
:1015BA000BF020EE03F03C50D9263D50DA2234C01D
:1015CA00DFFF36503C24386E37503D20396EFC0E12
:1015DA003824D96EFF0E3920DA6E34C0DFFF375057
:1015EA0007E1090E365CD8B0FDEF0AF0FFEF0AF00A
:1015FA0001EF0BF02FEF0BF03CC038F03DC039F093
:10160A00381E391E384A392A030E38143A6E3B6A94
:10161A003A503C263B503D223A50365E3B50375AB0
:10162A00FC0E3616FF0E371626EF0BF03CC0D9FF1C
:10163A003DC0DAFF34C0DFFF3606D8A037063C4A81
:10164A003D2A36503710D8A42DEF0BF02FEF0BF0B0
:10165A001BEF0BF01200000E406E000E3F6E000EE4
:10166A003E6E000E3D6E3CEF0BF0384A392A38C008
:10167A00D9FF39C0DAFF200EDE18D8B447EF0BF0D5
:10168A0049EF0BF03AEF0BF038C0D9FF39C0DAFF57
:10169A00DF503A6EF70E3A243B6E3C6AFF0E3C224C
:1016AA003C5009E1050E3B5CD8A05EEF0BF060EF01
:1016BA000BF03AEF0BF06AEF0BF0000E3E6E010EE4
:1016CA003D6E384A392A9FEF0BF038C0D9FF39C02E
:1016DA00DAFFDF503A6E3B6A3B50000AD8B478EF23
:1016EA000BF09FEF0BF03A502B0AD8B466EF0BF0D1
:1016FA00060AD8B462EF0BF09FEF0BF03FC032F04E
:10170A0040C033F0000E356E0A0E346E17EC13F03B
:10171A0038C0D9FF39C0DAFFDF503A6E3A50325E2C
:10172A00000E335A300E32243F6E000E3320406EC4
:10173A0066EF0BF038C0D9FF39C0DAFFDF503A6ED6
:10174A00D00E3A243B6E3C6AFF0E3C223C5009E123
:10175A000A0E3B5CD8A0B4EF0BF0B6EF0BF083EFA8
:10176A000BF03D503E10D8A4BDEF0BF0BFEF0BF0CD
:10177A00CDEF0BF03FC03AF040C03BF03A1E3B1EA3
:10178A003A4A3B2A3AC038F03BC039F0D1EF0BF065
:10179A003FC038F040C039F01200010E3A6E3250A4
:1017AA003310D8B4DBEF0BF0DDEF0BF0EEEF0BF0FC
:1017BA0032C0D9FF33C0DAFFDF30E832E832070B34
:1017CA00346E070E3464ECEF0BF0EEEF0BF051EFD2
:1017DA000CF0000E3A6E72EF0CF032C0D9FF33C033
:1017EA00DAFFDF30E832E832070B346E010E356E6D
:1017FA00342A02EF0CF0D8903536342E00EF0CF074
:10180A003550FF0A366E32C0D9FF33C0DAFFDF50D7
:10181A00070B376E3750020D150EF324D96E000EE2
:10182A00F420DA6EDECF38F0DDCF39F038C0D9FFD8
:10183A0039C0DAFF3650DF1672EF0CF032C0D9FF2A
:10184A0033C0DAFFDF30E832E832070B346E010EBC
:10185A00356E342A33EF0CF0D8903536342E31EF0A
:10186A000CF032C0D9FF33C0DAFFDF50070B366EF7
:10187A003650020D150EF324D96E000EF420DA6EDE
:10188A00DECF37F0DDCF38F037C0D9FF38C0DAFF06
:10189A003550DF1272EF0CF032C0D9FF33C0DAFFD5
:1018AA00DFBC5AEF0CF05DEF0CF0010E5EEF0CF0AE
:1018BA00000E346E356A3550000AD8B467EF0CF062
:1018CA00EEEF0BF03450000AD8B4F2EF0BF0010A35
:1018DA00D8B423EF0CF0EEEF0BF03A501200485058
:1018EA004910D8A47BEF0CF07DEF0CF081EF0CF0DF
:1018FA00000E4D6E0BEF0DF0040E48243C6E000EE8
:10190A0049203D6E3BEC11F04D6E050E48243C6EAD
:10191A00000E49203D6E3BEC11F04D6E000E4C6EF0
:10192A00000E4B6E4B5048243C6E4C5049203D6E85
:10193A003BEC11F04B4A4C2A4CBEADEF0CF04C502C
:10194A0009E1040E4B5CD8A0ADEF0CF0AFEF0CF040
:10195A0097EF0CF01A0E4A6EF80EE82EFED74A2EB2
:10196A00FCD700D048C044F049C045F0380E466E56
:10197A008DEC10F0070E4A6E7D0EE82EFED74A2E29
:10198A00FCD700F048C044F049C045F0380E466E16
:10199A008DEC10F0320EE82EFED748C044F049C054
:1019AA0045F0380E466E8DEC10F048C044F049C040
:1019BA0045F0010E466E8DEC10F048C044F049C067
:1019CA0045F0020E466E8DEC10F048C044F049C056
:1019DA0045F0060E466E8DEC10F048C044F049C042
:1019EA0045F00C0E466E8DEC10F048C044F049C02C
:1019FA0045F0280E466E8DEC10F048C044F049C000
:101A0A0045F0800E466E8DEC10F04D6E4D50120072
:101A1A00010E3B6E32503310D8B416EF0DF018EFAA
:101A2A000DF029EF0DF032C0D9FF33C0DAFFDF30F5
:101A3A00E832E832070B356E070E356427EF0DF0F2
:101A4A0029EF0DF08CEF0DF0000E3B6EA1EF0DF0BB
:101A5A0032C0D9FF33C0DAFFDF30E832E832070B91
:101A6A00356E010E366E352A3DEF0DF0D8903636BA
:101A7A00352E3BEF0DF03650FF0A376E32C0D9FFD4
:101A8A0033C0DAFFDF50070B386E3850020D010EF3
:101A9A00F324D96E000EF420DA6EDECF39F0DDCFF2
:101AAA003AF039C0D9FF3AC0DAFF3750DF16A1EF52
:101ABA000DF032C0D9FF33C0DAFFDF30E832E83246
:101ACA00070B356E010E366E352A6EEF0DF0D89083
:101ADA003636352E6CEF0DF032C0D9FF33C0DAFF3F
:101AEA00DF50070B376E3750020D010EF324D96E03
:101AFA00000EF420DA6EDECF38F0DDCF39F038C0D0
:101B0A00D9FF39C0DAFF3650DF12A1EF0DF0345099
:101B1A00356E366A3650000AD8B496EF0DF029EFC2
:101B2A000DF03550000AD8B42DEF0DF0010AD8B4E3
:101B3A005EEF0DF029EF0DF03B501200000E436EE0
:101B4A00000E456E000E446E000E466E3C503D106F
:101B5A00D8B4B2EF0DF0B4EF0DF0BDEF0DF03E507A
:101B6A003F10D8A4BBEF0DF0BDEF0DF0C1EF0DF0A3
:101B7A00000E426E28EF0EF0000E456E000E446E07
:101B8A0044503C24326E000E3D20336E000E346EFB
:101B9A000DEC0DF0442A030E4464D6EF0DF0D8EF95
:101BAA000DF0C5EF0DF045503C24326E000E3D207D
:101BBA00336E010E346E0DEC0DF0000E466E46507B
:101BCA003C24406E000E3D20416E040E4024326ECD
:101BDA00000E4120336E430E346E000E356EF6EC65
:101BEA000EF0426E4304D8A4FDEF0DF0FFEF0DF0A6
:101BFA0016EF0EF04550030D010EF324406E100E41
:101C0A00F420416E46504026000E412240C0F6FFA5
:101C1A0041C0F7FF3EC0D9FF3FC0DAFF0800F5CF49
:101C2A00DFFF462A020E46641DEF0EF01FEF0EF08C
:101C3A00E4EF0DF0452A030E456426EF0EF028EF77
:101C4A000EF0C3EF0DF042501200280E446E000E43
:101C5A00456E010E466E8DEC10F0000E596E000EA8
:101C6A00586E280E4F6E000E506E010E516E010E08
:101C7A00526E500E536E100E546E71EC11F0000E2F
:101C8A005B6E0B0E5A6E280E4F6E000E506E010ED2
:101C9A00516E5AC052F02E0E536EC5EC11F0020E60
:101CAA00576E040E566EBA0EE82EFED7562EFCD785
:101CBA00572EFAD700D05A4A5B2A5BBE6EEF0EF057
:101CCA005B5009E1100E5A5CD8A06EEF0EF070EF6F
:101CDA000EF048EF0EF0030E576E080E566E770E92
:101CEA00E82EFED7562EFCD7572EFAD700F0280E2C
:101CFA00446E000E456E010E466E8DEC10F0584A89
:101D0A00592A59BE92EF0EF0595009E1020E585C59
:101D1A00D8A092EF0EF094EF0EF036EF0EF012000C
:101D2A00010E4E6E48504910D8A49EEF0EF0A0EF57
:101D3A000EF0A4EF0EF0000E4E6EF4EF0EF04B060E
:101D4A00D7EF0EF048C044F049C045F04B50800F21
:101D5A00466E8DEC10F04E6EF4EF0EF048C044F073
:101D6A0049C045F04B50C00F466E8DEC10F04E6ED8
:101D7A00F4EF0EF048C044F049C045F04B50940FC0
:101D8A00466E8DEC10F04E6EF4EF0EF048C044F043
:101D9A0049C045F04B50D40F466E8DEC10F04E6E94
:101DAA00F4EF0EF04A504C6E4D6A4D50000AD8B40A
:101DBA00E1EF0EF0F4EF0EF04C50010AD8B4A7EFA1
:101DCA000EF0030AD8B4B3EF0EF0010AD8B4BFEF8D
:101DDA000EF0070AD8B4CBEF0EF0F4EF0EF04E5027
:101DEA001200010E3B6E32503310D8B4FFEF0EF0E2
:101DFA0001EF0FF01BEF0FF032C0D9FF33C0DAFF4B
:101E0A00DF30E832E832070B366E080E366010EF24
:101E1A000FF012EF0FF01BEF0FF034503510D8A46B
:101E2A0019EF0FF01BEF0FF01FEF0FF0000E3B6ED4
:101E3A0050EF0FF032C0D9FF33C0DAFFDF30E8329B
:101E4A00E832070B366E32C0D9FF33C0DAFFDF50F3
:101E5A00070B376E3750020D0B0EF324D96E000EA6
:101E6A00F420DA6EDECF38F0DDCF39F038C0D9FF92
:101E7A0039C0DAFFDF503A6E362A46EF0FF0D890B3
:101E8A003A32362E44EF0FF03A50010B34C0D9FFE4
:101E9A0035C0DAFFDF6E3B501200010E3F6E3C5038
:101EAA003D10D8A45BEF0FF05DEF0FF061EF0FF07C
:101EBA00000E3F6E92EF0FF066C040F03CC0D9FFB3
:101ECA003DC0DAFFDF50070B3E6E40503E18F80B5C
:101EDA003E18406E3CC0D9FF3DC0DAFFDF30E83221
:101EEA00E832070B3E6E3E463E463E4640503E189E
:101EFA00C70B3E18406E409C3CC0D9FF3DC0DAFF7C
:101F0A00DFAC02D0408E01D0409E400E326E000EF1
:101F1A00336E010E346E0DEC0DF03F501200010EBF
:101F2A003F6E3C503D10D8A49DEF0FF09FEF0FF08D
:101F3A00A3EF0FF0000E3F6ED4EF0FF065C040F034
:101F4A003CC0D9FF3DC0DAFFDF50070B3E6E405060
:101F5A003E18F80B3E18406E3CC0D9FF3DC0DAFF70
:101F6A00DF30E832E832070B3E6E3E463E463E46DA
:101F7A0040503E18C70B3E18406E409C3CC0D9FFEB
:101F8A003DC0DAFFDFAC02D0408E01D0409E400E49
:101F9A00326E000E336E000E346E0DEC0DF03F50B3
:101FAA001200010E436E40504110D8A4DFEF0FF02B
:101FBA00E1EF0FF0E5EF0FF0000E436E14EF10F0B3
:101FCA0067C044F040C0D9FF41C0DAFFDF50070BB9
:101FDA00426E44504218F80B4218446E40C0D9FF72
:101FEA0041C0DAFFDF30E832E832070B426E424680
:101FFA004246424644504218C70B4218446E449C1B
:10200A0040C0D9FF41C0DAFFDFAC02D0448E01D014
:10201A00449E440E3C6E000E3D6E3BEC11F0435064
:10202A00120040504110D8A41DEF10F01FEF10F01D
:10203A0023EF10F0000E446E50EF10F0000E456EC4
:10204A00455040243C6E000E41203D6E3BEC11F0A1
:10205A00452A030E456434EF10F036EF10F025EFF1
:10206A0010F0000E466E46504024426E000E41208B
:10207A00436E040E4224326E000E4320336ED2ECBD
:10208A000BF0446E462A030E46644EEF10F050EFF2
:10209A0010F038EF10F04450120044504510D8A404
:1020AA0059EF10F05BEF10F05FEF10F0000E476E83
:1020BA008BEF10F0050E4424326E000E4520336E6D
:1020CA00010E346E0DEC0DF0476E44C03CF045C075
:1020DA003DF046380F0B3E6EC8EC10F0476E44C018
:1020EA003CF045C03DF09EEC11F0476E44C03CF018
:1020FA0045C03DF046C03EF0C8EC10F0476E44C003
:10210A003CF045C03DF09EEC11F0476E475012007E
:10211A0044504510D8A494EF10F096EF10F09AEFBF
:10212A0010F0000E476EC6EF10F0050E4424326E12
:10213A00000E4520336E000E346E0DEC0DF0476E26
:10214A0044C03CF045C03DF046380F0B3E6EC8EC2B
:10215A0010F0476E44C03CF045C03DF09EEC11F0D3
:10216A00476E44C03CF045C03DF046C03EF0C8EC66
:10217A0010F0476E44C03CF045C03DF09EEC11F0B3
:10218A00476E475012003C503D10D8A4CFEF10F0D4
:10219A00D1EF10F0D5EF10F0000E416E01EF11F003
:1021AA00000E436E000E426E42503C24326E435083
:1021BA003D20336E42C03FF03EC040F03F2AE8EF78
:1021CA0010F0D89040323F2EE6EF10F04050010B4D
:1021DA00346E0DEC0DF0416E424A432A43BEFFEFC6
:1021EA0010F0435009E1040E425CD8A0FFEF10F052
:1021FA0001EF11F0D9EF10F041501200010E4C6EB0
:10220A0048504910D8B40CEF11F00EEF11F017EF47
:10221A0011F04A504B10D8A415EF11F017EF11F036
:10222A002BEF11F0000E4C6E39EF11F048C044F05C
:10223A0049C045F04AC0F6FF4BC0F7FF0800F5CF8A
:10224A0046F052EC10F04C6E4A4A4B2A4AC0F6FF4E
:10225A004BC0F7FF0800F5500009D8A437EF11F07A
:10226A0039EF11F01BEF11F04C5012003C503D10A9
:10227A00D8B442EF11F044EF11F055EF11F03CC021
:10228A00D9FF3DC0DAFFDF30E832E832070B3E6E95
:10229A00070E3E6453EF11F055EF11F059EF11F0AC
:1022AA00000E3F6E6FEF11F03CC032F03DC033F0CC
:1022BA00D2EC0BF03F6E3CC032F03DC033F03CC074
:1022CA00D9FF3DC0DAFF000EDFBE010E346E0DEC01
:1022DA000DF03F6E3F5012004F505010D8B478EFB7
:1022EA0011F07AEF11F083EF11F053505410D8A483
:1022FA0081EF11F083EF11F087EF11F0000E556EA8
:10230A009CEF11F04FC048F050C049F051C04AF05C
:10231A0052C04BF095EC0EF04FC048F050C049F057
:10232A0053C04AF054C04BF003EC11F0556E5550AF
:10233A0012003C503D10D8A4A5EF11F0A7EF11F000
:10234A00ABEF11F0000E3E6EC3EF11F0040E3C2409
:10235A00326E000E3D20336E010E346E0DEC0DF020
:10236A0000D000D000F0040E3C24326E000E3D2056
:10237A00336E000E346E0DEC0DF03E6E3E501200C0
:10238A004F505010D8A4CCEF11F0CEEF11F0D2EF8D
:10239A0011F0000E546EE6EF11F04FC048F050C035
:1023AA0049F051C04AF052C04BF095EC0EF0546E11
:1023BA004FC044F050C045F053C046F052EC10F004
:1023CA00546E545012003C503D10D8A4EFEF11F057
:1023DA00F1EF11F0F5EF11F0000E3E6E09EF12F079
:1023EA003CC032F03DC033F0000E346E0DEC0DF0FF
:1023FA003E6E010E3C24326E000E3D20336E000EFE
:10240A00346E0DEC0DF03E6E3E5012003C503D1005
:10241A00D8A412EF12F014EF12F018EF12F0000E17
:10242A003E6E2CEF12F03CC032F03DC033F0010E8C
:10243A00346E0DEC0DF03E6E010E3C24326E000E31
:10244A003D20336E000E346E0DEC0DF03E6E3E50A4
:10245A0012003C503D10D8A435EF12F037EF12F0BD
:10246A003BEF12F0000E3E6E4FEF12F03CC032F01E
:10247A003DC033F0000E346E0DEC0DF03E6E010ED1
:10248A003C24326E000E3D20336E010E346E0DEC8C
:10249A000DF03E6E3E501200010E366E200E3218BE
:1024AA003310D8B45BEF12F05DEF12F070EF12F058
:1024BA00F70E3224346EFF0E3320356E355009E1A3
:1024CA00050E345CD8A06CEF12F06EEF12F070EFCC
:1024DA0012F0000E366E36C032F0336A1200280E41
:1024EA00486E000E496E74EC0CF0210E406E000E20
:1024FA00416E16EC10F02E0E406E000E416E93ECFB
:10250A0012F0310E406E000E416ED6EC0FF0300E16
:10251A00406E000E416ED6EC0FF012004050411092
:10252A00D8A49AEF12F09CEF12F0A0EF12F0000E6E
:10253A00426EB0EF12F040C03CF041C03DF03BECBF
:10254A0011F0426E010E40243C6E000E41203D6E99
:10255A003BEC11F0426E42501200D00EF66E250E80
:10256A00F76E000EF86E00EE01F010EE31F0090081
:10257A00F5CFEEFFE550E150FAE100EE5EF01A0EFB
:10258A00EE6AE806FDE1000EF86E00013DEF08F084
:10259A0032C034F033C035F0D5EF12F0324A332A64
:1025AA0032C0D9FF33C0DAFFDF50D8A4DFEF12F010
:1025BA00E1EF12F0D3EF12F03450325C326E355044
:1025CA003358336E1200890F8A0F8B0F8C0F8D0FC1
:1025DA00800F810F820F830F840F920F930F940F36
:1025EA00950F960F40E2020A121A626A72232B337F
:0725FA003B1B1300080B035B
:10260200D00E3224346EFF0E3320356E35500AE17F
:102612000A0E345CD8A010EF13F013EF13F0010E82
:1026220014EF13F0000E326E336A1200325034028D
:10263200F3CF36F0F4CF37F032503502F35037266D
:1026420033503402F350372636C032F037C033F0FD
:08265200120074EC12F01200FA
:020000040030CA
:0E000000FF02091EFF8181FF0FC00FE00F40BD
:00000001FF
